:100000000C942A000C946B080C949E080C94D10854
:100010000C9447000C9447000C9447000C94470044
:100020000C9447000C9447000C9447000C94470034
:100030000C9447000C9447000C9447000C94470024
:100040000C94270F0C9447000C9447000C94470025
:100050000C94470011241FBECFE5D8E0DEBFCDBF12
:1000600011E0A0E6B0E0ECE2F3E802C005900D92EA
:10007000A838B107D9F711E0A8E8B1E001C01D9296
:10008000A739B107E1F70E94DC400C9494410C942D
:100090000000EF92FF920F931F937B018C0120E0F1
:1000A00030E040E05FE40E94F50388238CF0C80153
:1000B000B70120E030E040E05FE40E94C1010E940F
:1000C00055049B01AC01205030404040504806C0D0
:1000D000C801B7010E9455049B01AC01B901CA01D6
:1000E0001F910F91FF90EF900895A0E0B0E0EBE733
:1000F000F0E00C945D41DC012B01FA019C919230FF
:1001000008F439C1EB018881823008F433C194309E
:1001100069F4843009F02FC111969C91119789815F
:10012000981709F428C1A0E6B0E025C1843009F48D
:1001300021C18230A9F4923009F01DC19A01AD01AC
:1001400088E0EA010990AE01E90109929E0181501F
:10015000C1F7E201898111969C918923818308C1AD
:10016000923009F407C112962D903C901397EB0141
:100170008A819B811496AD90BD90CD90DC901797AD
:10018000EC80FD800E811F819101281B390BB90184
:1001900037FF04C066277727621B730B6032710537
:1001A0000CF061C0121613066CF537014801062EDB
:1001B00004C096948794779467940A94D2F721E0C8
:1001C00030E040E050E004C0220F331F441F551FB1
:1001D0006A95D2F721503040404050402E213F21B7
:1001E00040235123211531054105510521F021E01E
:1001F00030E040E050E079018A01E628F72808293C
:1002000019293CC0232BD1F1260E371E350146019A
:10021000062E04C096948794779467940A94D2F734
:1002200021E030E040E050E004C0220F331F441FC3
:10023000551F6A95D2F721503040404050402A2146
:100240003B214C215D21211531054105510521F04E
:1002500021E030E040E050E059016A01A628B728CB
:10026000C828D9280BC0821593052CF01C01AA249C
:10027000BB24650103C0EE24FF24870111969C91E5
:10028000D20111968C91981709F445C0992339F041
:10029000A80197012A193B094C095D0906C0A6016E
:1002A00095012E193F09400B510B57FD08C01182D3
:1002B0003382228224833583468357831DC081E0A5
:1002C00081833382228288279927DC01821B930B4A
:1002D000A40BB50B84839583A683B7830DC0220F2F
:1002E000331F441F551F24833583468357838281E0
:1002F000938101979383828324813581468157813D
:10030000DA01C9010197A109B1098F5F9F4FAF4F72
:10031000BF4328F30BC0918333822282EA0CFB1C7B
:100320000C1D1D1DE482F5820683178383E0808304
:10033000248135814681578157FF1AC0C901AA27F8
:1003400097FDA095BA2F81709070A070B0705695EF
:10035000479537952795822B932BA42BB52B848318
:100360009583A683B7838281938101969383828349
:10037000DF0101C0D201CD01CDB7DEB7E2E10C94BF
:100380007941A0E2B0E0E7ECF1E00C9469416983C7
:100390007A838B839C832D833E834F835887E9E048
:1003A000EE2EF12CEC0EFD1ECE010196B7010E943F
:1003B00046068E010F5E1F4FCE010596B8010E94C2
:1003C00046068A8991E089278A8BC701B801AE0168
:1003D000475E5F4F0E9475000E947105A096E6E09F
:1003E0000C948541A0E2B0E0E8EFF1E00C946941A3
:1003F00069837A838B839C832D833E834F835887C5
:10040000F9E0EF2EF12CEC0EFD1ECE010196B701A6
:100410000E9446068E010F5E1F4FCE010596B80161
:100420000E944606C701B801AE01475E5F4F0E94B9
:1004300075000E947105A096E6E00C948541A0E24B
:10044000B0E0E5E2F2E00C945D4169837A838B834E
:100450009C832D833E834F835887CE010196BE0136
:10046000675F7F4F0E944606CE010596BE016F5E14
:100470007F4F0E9446069985923088F089898230A4
:10048000C8F0943019F4823051F404C0843029F457
:10049000923081F480E690E0C6C0923049F420E0CA
:1004A0009A858A89981321E02A87CE010996BBC0D4
:1004B000823049F420E09A858A89981321E02A8BBA
:1004C000CE014196B0C02D843E844F8458886D88FB
:1004D0007E888F88988CEE24FF248701AA24BB2471
:1004E000650140E050E060E070E0E0E0F0E0C10174
:1004F00081709070892BE9F0E60CF71C081D191D1E
:100500009A01AB012A0D3B1D4C1D5D1D80E090E062
:10051000A0E0B0E0E614F7040805190520F481E036
:1005200090E0A0E0B0E0BA01A901480F591F6A1F8E
:100530007B1FAA0CBB1CCC1CDD1C97FE08C081E0F5
:1005400090E0A0E0B0E0A82AB92ACA2ADB2A3196B6
:10055000E032F10549F0660C771C881C991C569412
:10056000479437942794C3CFFA85EA892B893C892D
:100570008B859C85280F391F2E5F3F4F17C0CA01FE
:1005800081709070892B61F016950795F794E79428
:1005900080E090E0A0E0B0E8E82AF92A0A2B1B2BC3
:1005A00076956795579547952F5F3F4F77FDE7CF36
:1005B0000CC0440F551F661F771F17FD4160EE0CDE
:1005C000FF1C001F111F21503040403090E05907A0
:1005D00090E0690790E4790760F32B8F3C8FDB0193
:1005E000CA018F779070A070B07080349105A1051A
:1005F000B10561F447FD0AC0E114F10401051105DC
:1006000029F0405C5F4F6F4F7F4F40781A8EFE1786
:1006100011F081E08A8F4D8F5E8F6F8F78A383E01A
:10062000898FCE0149960E947105A096E2E10C9453
:100630007941A8E1B0E0EFE1F3E00C946541698312
:100640007A838B839C832D833E834F835887B9E0C5
:10065000EB2EF12CEC0EFD1ECE010196B7010E948F
:1006600046068E010F5E1F4FCE010596B8010E940F
:1006700046062985223008F47EC03989323010F4CC
:10068000B8017CC08A859A8989278A87243011F02D
:10069000223031F4231709F06EC060E670E06EC0BE
:1006A000343039F41D861E861F86188A1C861B86E8
:1006B00004C0323021F484E08987B7015FC02B8504
:1006C0003C858B899C89281B390B3C872B87ED84C3
:1006D000FE840F851889AD88BE88CF88D88CEA142F
:1006E000FB040C051D0540F4EE0CFF1C001F111F40
:1006F000215030403C872B8720E030E040E050E044
:1007000080E090E0A0E0B0E460E070E0EA14FB0478
:100710000C051D0540F0282B392B4A2B5B2BEA18C2
:10072000FB080C091D09B695A79597958795EE0CC2
:10073000FF1C001F111F6F5F7F4F6F31710531F775
:10074000DA01C9018F779070A070B0708034910584
:10075000A105B10561F427FD0AC0E114F10401050A
:10076000110529F0205C3F4F4F4F5F4F20782D87B8
:100770003E874F87588BBE01675F7F4FCB010E943A
:1007800071056896EAE00C948141A8E1B0E0EBECD9
:10079000F3E00C94694169837A838B839C832D8376
:1007A0003E834F83588789E0E82EF12CEC0EFD1E26
:1007B000CE010196B7010E9446068E010F5E1F4FC3
:1007C000CE010596B8010E9446068985823040F028
:1007D0008989823028F0C701B8010E94BE0601C095
:1007E0008FEF6896E6E00C948541A8E1B0E0EBEF6E
:1007F000F3E00C94694169837A838B839C832D8316
:100800003E834F83588789E0E82EF12CEC0EFD1EC5
:10081000CE010196B7010E9446068E010F5E1F4F62
:10082000CE010596B8010E9446068985823040F0C7
:100830008989823028F0C701B8010E94BE0601C034
:100840008FEF6896E6E00C948541A8E1B0E0EBE21A
:10085000F4E00C94694169837A838B839C832D83B4
:100860003E834F83588789E0E82EF12CEC0EFD1E65
:10087000CE010196B7010E9446068E010F5E1F4F02
:10088000CE010596B8010E9446068985823040F067
:100890008989823028F0C701B8010E94BE0601C0D4
:1008A00081E06896E6E00C948541ACE0B0E0EBE5D1
:1008B000F4E00C946D4169837A838B839C83CE0131
:1008C0000196BE016B5F7F4F0E9446068D8182308C
:1008D00061F1823050F1843021F48E81882351F10E
:1008E0002EC02F81388537FD20C06E812F31310514
:1008F0001CF06623F9F023C08EE190E0821B930B7D
:1009000029853A854B855C8504C056954795379572
:1009100027958A95D2F76623B1F05095409530958A
:1009200021953F4F4F4F5F4F0EC020E030E040E039
:1009300050E009C02FEF3FEF4FEF5FE704C020E02A
:1009400030E040E050E8B901CA012C96E2E00C9496
:100950008941A8E0B0E0EFEAF4E00C9465417B0146
:100960008C01611571058105910519F482E0898377
:1009700060C083E089838EE1C82ED12CDC82CB82DB
:10098000ED82FE820F831887C801B7010E942205FD
:10099000FC013197F7FF3BC0222733272E1B3F0B6B
:1009A00057016801022E04C0D694C794B794A79447
:1009B0000A94D2F740E050E060E070E081E090E01F
:1009C000A0E0B0E004C0880F991FAA1FBB1F2A95A2
:1009D000D2F70197A109B1098E219F21A023B1234C
:1009E0000097A105B10521F041E050E060E070E022
:1009F0004A295B296C297D294D835E836F83788723
:100A00008EE190E08E1B9F0B9C838B8312C03097EE
:100A100081F00E2E04C0EE0CFF1C001F111F0A9463
:100A2000D2F7ED82FE820F831887CE1ADF0ADC82AE
:100A3000CB821A82CE0101960E9471052896EAE0C7
:100A40000C948141EF92FF920F931F937B018C01D5
:100A500080E0E81680E0F80681E0080780E01807EB
:100A600088F48FEFE816F1040105110531F028F044
:100A700088E090E0A0E0B0E017C080E090E0A0E067
:100A8000B0E012C080E0E81680E0F80680E00807D9
:100A900081E0180728F088E190E0A0E0B0E004C011
:100AA00080E190E0A0E0B0E020E230E040E050E003
:100AB000281B390B4A0B5B0B04C016950795F7945E
:100AC000E7948A95D2F7F701E859FF4F8081281BF8
:100AD000310941095109C9011F910F91FF90EF9010
:100AE0000895DF92EF92FF920F931F93FC01E48031
:100AF000F58006811781D1808081823048F480E0C2
:100B000090E0A0E1B0E0E82AF92A0A2B1B2BA5C04F
:100B1000843009F49FC0823021F4EE24FF24870141
:100B200005C0E114F1040105110519F4E0E0F0E05D
:100B300096C0628173819FEF623879070CF05BC0C9
:100B400022E83FEF261B370B2A3131052CF020E03D
:100B500030E040E050E02AC0B801A701022E04C0F6
:100B600076956795579547950A94D2F781E090E07E
:100B7000A0E0B0E004C0880F991FAA1FBB1F2A95F0
:100B8000D2F70197A109B1098E219F21A023B1239A
:100B90000097A105B10521F081E090E0A0E0B0E070
:100BA0009A01AB01282B392B4A2B5B2BDA01C901A7
:100BB0008F779070A070B07080349105A105B10559
:100BC00039F427FF09C0205C3F4F4F4F5F4F04C0EF
:100BD000215C3F4F4F4F5F4FE0E0F0E02030A0E05E
:100BE0003A07A0E04A07A0E45A0710F0E1E0F0E07D
:100BF00079018A0127C06038710564F5FB01E1586D
:100C0000FF4FD801C7018F779070A070B07080340B
:100C10009105A105B10539F4E7FE0DC080E490E02F
:100C2000A0E0B0E004C08FE390E0A0E0B0E0E80E08
:100C3000F91E0A1F1B1F17FF05C016950795F7948D
:100C4000E794319687E016950795F794E7948A958F
:100C5000D1F705C0EE24FF248701EFEFF0E06E2FFF
:100C6000679566276795902F9F77D794DD24D79453
:100C70008E2F8695492F462B582F5D29B701CA0123
:100C80001F910F91FF90EF90DF900895FC01DB0121
:100C9000408151812281622F6F7770E0221F2227CD
:100CA000221F9381892F880F822B282F30E0991FD4
:100CB0009927991F11969C93119721153105A9F534
:100CC000411551056105710511F482E037C082E8D4
:100CD0009FEF13969C938E9312979A01AB0167E056
:100CE000220F331F441F551F6A95D1F783E08C9361
:100CF0000DC0220F331F441F551F12968D919C91DA
:100D00001397019713969C938E931297203080E04F
:100D1000380780E0480780E4580758F314962D936D
:100D20003D934D935C93179708952F3F310579F4C8
:100D3000411551056105710519F484E08C930895FE
:100D400064FF03C081E08C9312C01C9210C02F5727
:100D5000304013963C932E93129783E08C9387E058
:100D6000440F551F661F771F8A95D1F7706414963C
:100D70004D935D936D937C93179708951F93DC01BA
:100D8000FB019C91923008F447C08081823008F4C6
:100D900043C0943051F411961C91843099F58181AF
:100DA000682F70E0611B71093FC0843021F09230E0
:100DB00031F48230B9F18181882389F12DC01196F7
:100DC0001C9111978230F1F081811817D9F4129695
:100DD0002D913C911397828193818217930794F010
:100DE00028173907BCF014968D919D910D90BC91F8
:100DF000A02D2481358146815781281739074A075C
:100E00005B0718F4112341F00AC082179307A40767
:100E1000B50740F4112319F061E070E005C06FEFF1
:100E20007FEF02C060E070E0CB011F910895DF9377
:100E3000CF93CDB7DEB7AFE5B0E0EFE5F0E080816E
:100E400080688C9380E0CF91DF910895DF93CF93FA
:100E5000CDB7DEB7AFE5B0E0EFE5F0E080818F77AA
:100E60008C9380E0CF91DF910895DF93CF9300D0F2
:100E700000D00F92CDB7DEB78A836B8319828A8147
:100E8000282F30E03D832C838C819D818630910515
:100E900059F02C813D8127303105B1F08C819D8145
:100EA0008530910541F145C0A5E5B0E0E5E5F0E00C
:100EB00080818C7F8C93A5E5B0E0E5E5F0E0908142
:100EC0008B81892B8C9337C0A5E5B0E0E5E5F0E098
:100ED0008081837F8C93A5E5B0E0E5E5F0E080813B
:100EE000282F8B81882F90E0880F991F880F991FDA
:100EF000822B8C9320C0A4E5B0E0E4E5F0E0808193
:100F00008F7B8C93A4E5B0E0E4E5F0E08081282FAE
:100F10008B81882F90E08170907000249695879542
:100F20000794969587950794982F802D822B8C9304
:100F300002C081E08983ABE5B0E0EBE5F0E08081C1
:100F4000482F8A81282F30E081E090E0022E02C0F5
:100F5000880F991F0A94E2F7842B8C9389810F9054
:100F60000F900F900F900F90CF91DF910895DF9326
:100F7000CF930F92CDB7DEB78983ABE5B0E0EBE559
:100F8000F0E08081482F8981282F30E081E090E0D7
:100F9000022E02C0880F991F0A94E2F780958423DD
:100FA0008C9380E00F90CF91DF910895DF93CF93E2
:100FB00000D000D000D0CDB7DEB78A837C836B83AE
:100FC00019828B819C81009719F482E089832CC05F
:100FD0008A81282F30E03E832D838D819E8186304B
:100FE000910559F02D813E812730310569F08D81C1
:100FF0009E818530910579F015C08B819C819093FD
:1010000089018093880110C08B819C8190938B0112
:1010100080938A0109C08B819C8190938D0180937C
:101020008C0102C081E08983898126960FB6F894ED
:10103000DEBF0FBECDBFCF91DF910895DF93CF9379
:10104000CDB7DEB7A5E5B0E0E5E5F0E080818260F0
:101050008C93A5E5B0E0E5E5F0E0808181608C93BC
:10106000ABE5B0E0EBE5F0E0808180648C93CF915C
:10107000DF910895DF93CF93CDB7DEB7A5E5B0E05C
:10108000E5E5F0E0808188608C93A5E5B0E0E5E5DA
:10109000F0E0808184608C93ABE5B0E0EBE5F0E0BC
:1010A000808180688C93CF91DF910895DF93CF93F7
:1010B000CDB7DEB7A4E5B0E0E4E5F0E08081806480
:1010C0008C93ABE5B0E0EBE5F0E0808180628C933F
:1010D000CF91DF9108951F920F920FB60F921124B6
:1010E0002F933F934F935F936F937F938F939F9330
:1010F000AF93BF93EF93FF93DF93CF93CDB7DEB75B
:101100008091880190918901009729F0E0918801F0
:10111000F09189010995CF91DF91FF91EF91BF91F6
:10112000AF919F918F917F916F915F914F913F917F
:101130002F910F900FBE0F901F9018951F920F9236
:101140000FB60F9211242F933F934F935F936F939A
:101150007F938F939F93AF93BF93EF93FF93DF930F
:10116000CF93CDB7DEB780918A0190918B01009724
:1011700029F0E0918A01F0918B010995CF91DF91DF
:10118000FF91EF91BF91AF919F918F917F916F915F
:101190005F914F913F912F910F900FBE0F901F9035
:1011A00018951F920F920FB60F9211242F933F9311
:1011B0004F935F936F937F938F939F93AF93BF935F
:1011C000EF93FF93DF93CF93CDB7DEB780918C0180
:1011D00090918D01009729F0E0918C01F0918D01A3
:1011E0000995CF91DF91FF91EF91BF91AF919F91C1
:1011F0008F917F916F915F914F913F912F910F90C0
:101200000FBE0F901F901895DF93CF93CDB7DEB729
:1012100027970FB6F894DEBF0FBECDBF8C836D83CA
:101220001B828C819AE0692F0E9400418A838C8105
:101230009AE0692F0E940041892F89838A81282F93
:1012400030E03F832E838E819F818230910509F4A7
:101250004AC02E813F812330310534F48E819F8135
:101260008130910571F0D5C02E813F812330310549
:1012700009F46BC08E819F818430910509F497C079
:10128000C8C08D818130A1F4AAE3B0E0EAE3F0E0C8
:101290008081482F8981282F30E081E090E0022E64
:1012A00002C0880F991F0A94E2F7842B8C93B3C075
:1012B0008D818823A9F4AAE3B0E0EAE3F0E080811D
:1012C000482F8981282F30E081E090E0022E02C073
:1012D000880F991F0A94E2F7809584238C939BC012
:1012E00081E08B8398C08D818130A1F4A7E3B0E0C9
:1012F000E7E3F0E08081482F8981282F30E081E00A
:1013000090E0022E02C0880F991F0A94E2F7842B06
:101310008C9381C08D818823A9F4A7E3B0E0E7E333
:10132000F0E08081482F8981282F30E081E090E033
:10133000022E02C0880F991F0A94E2F78095842339
:101340008C9369C081E08B8366C08D818130A1F46C
:10135000A4E3B0E0E4E3F0E08081482F8981282F06
:1013600030E081E090E0022E02C0880F991F0A94BD
:10137000E2F7842B8C934FC08D818823A9F4A4E3DA
:10138000B0E0E4E3F0E08081482F8981282F30E04D
:1013900081E090E0022E02C0880F991F0A94E2F7C4
:1013A000809584238C9337C081E08B8334C08D81FA
:1013B0008130A1F4A1E3B0E0E1E3F0E08081482FC7
:1013C0008981282F30E081E090E0022E02C0880F52
:1013D000991F0A94E2F7842B8C931DC08D8188237A
:1013E000A9F4A1E3B0E0E1E3F0E08081482F898136
:1013F000282F30E081E090E0022E02C0880F991F74
:101400000A94E2F7809584238C9305C081E08B8356
:1014100002C081E08B838B8127960FB6F894DEBFE4
:101420000FBECDBFCF91DF910895DF93CF9300D052
:1014300000D00F92CDB7DEB78A836B8319828A8181
:10144000282F30E03D832C838C819D818230910553
:10145000D9F02C813D812330310534F48C819D817C
:101460008130910561F01FC02C813D812330310511
:1014700081F08C819D818430910581F014C0EAE374
:10148000F0E08B81808311C0E7E3F0E08B81808303
:101490000CC0E4E3F0E08B81808307C0E1E3F0E07F
:1014A0008B81808302C081E0898389810F900F90B6
:1014B0000F900F900F90CF91DF910895DF93CF930E
:1014C000CDB7DEB727970FB6F894DEBF0FBECDBFFE
:1014D0008C836D831B828C819AE0692F0E9400416E
:1014E0008A838C819AE0692F0E940041892F898329
:1014F0008A81282F30E03F832E838E819F81823026
:10150000910509F44AC02E813F812330310534F41E
:101510008E819F818130910571F0D5C02E813F81F0
:101520002330310509F46BC08E819F818430910591
:1015300009F497C0C8C08D818130A1F4ABE3B0E05D
:10154000EBE3F0E08081482F8981282F30E081E0B3
:1015500090E0022E02C0880F991F0A94E2F7842BB4
:101560008C93B3C08D818823A9F4ABE3B0E0EBE3A7
:10157000F0E08081482F8981282F30E081E090E0E1
:10158000022E02C0880F991F0A94E2F780958423E7
:101590008C939BC081E08B8398C08D818130A1F4B6
:1015A000A8E3B0E0E8E3F0E08081482F8981282FAC
:1015B00030E081E090E0022E02C0880F991F0A946B
:1015C000E2F7842B8C9381C08D818823A9F4A8E352
:1015D000B0E0E8E3F0E08081482F8981282F30E0F7
:1015E00081E090E0022E02C0880F991F0A94E2F772
:1015F000809584238C9369C081E08B8366C08D8144
:101600008130A1F4A5E3B0E0E5E3F0E08081482F6C
:101610008981282F30E081E090E0022E02C0880FFF
:10162000991F0A94E2F7842B8C934FC08D818823F5
:10163000A9F4A5E3B0E0E5E3F0E08081482F8981DB
:10164000282F30E081E090E0022E02C0880F991F21
:101650000A94E2F7809584238C9337C081E08B83D2
:1016600034C08D818130A1F4A2E3B0E0E2E3F0E088
:101670008081482F8981282F30E081E090E0022E80
:1016800002C0880F991F0A94E2F7842B8C931DC027
:101690008D818823A9F4A2E3B0E0E2E3F0E0808149
:1016A000482F8981282F30E081E090E0022E02C08F
:1016B000880F991F0A94E2F7809584238C9305C0C4
:1016C00081E08B8302C081E08B838B8127960FB6EC
:1016D000F894DEBF0FBECDBFCF91DF910895DF93A9
:1016E000CF9300D000D00F92CDB7DEB78A836B8343
:1016F00019828A81282F30E03D832C838C819D8143
:1017000082309105D9F02C813D812330310534F4AC
:101710008C819D818130910561F01FC02C813D81BC
:101720002330310581F08C819D818430910581F0D9
:1017300014C0EBE3F0E08B81808311C0E8E3F0E0BC
:101740008B8180830CC0E5E3F0E08B81808307C050
:10175000E2E3F0E08B81808302C081E089838981AC
:101760000F900F900F900F900F90CF91DF910895F1
:10177000DF93CF93CDB7DEB728970FB6F894DEBFCF
:101780000FBECDBF8C837E836D831B828C819AE0DC
:10179000692F0E9400418A838C819AE0692F0E9400
:1017A0000041892F89838D819E81009709F474C03F
:1017B0008A81282F30E038872F834F815885423027
:1017C000510559F18F8198858330910534F42F812B
:1017D00038852130310569F05CC04F815885433030
:1017E000510579F18F8198858430910509F43DC0C8
:1017F00050C0E9E3F0E08081282F30E08981882F14
:1018000090E0A90102C0559547958A95E2F7CA0173
:101810008170ED81FE81808341C0E6E3F0E080814C
:10182000282F30E08981882F90E0A90102C05595CA
:1018300047958A95E2F7CA018170ED81FE81808328
:101840002DC0E3E3F0E08081282F30E08981882FEC
:1018500090E0A90102C0559547958A95E2F7CA0123
:101860008170ED81FE81808319C0E0E3F0E080812A
:10187000282F30E08981882F90E0A90102C055957A
:1018800047958A95E2F7CA018170ED81FE818083D8
:1018900005C081E08B8302C082E08B838B81289618
:1018A0000FB6F894DEBF0FBECDBFCF91DF91089584
:1018B000DF93CF9300D000D000D0CDB7DEB78A83BE
:1018C0007C836B8319828B819C81009709F43FC0D4
:1018D0008A81282F30E03E832D838D819E81823046
:1018E0009105E9F02D813E812330310534F48D815D
:1018F0009E818130910561F027C02D813E8123308A
:101900003105A1F08D819E8184309105B1F01CC01C
:10191000E9E3F0E08081EB81FC8180831AC0E6E39B
:10192000F0E08081EB81FC81808313C0E3E3F0E091
:101930008081EB81FC8180830CC0E0E3F0E080815A
:10194000EB81FC81808305C081E0898302C082E055
:101950008983898126960FB6F894DEBF0FBECDBF6E
:10196000CF91DF910895DF93CF9300D000D000D0C6
:10197000CDB7DEB78C831B828C819AE0692F0E94E1
:1019800000418A838C819AE0692F0E940041892F4F
:1019900089838A81282F30E03E832D838D819E812B
:1019A0008230910551F12D813E812330310534F48F
:1019B0008D819E818130910561F05BC02D813E81DA
:1019C0002330310571F18D819E8184309105E9F1DB
:1019D00050C0ABE3B0E0EBE3F0E08081482F8981B9
:1019E000282F30E081E090E0022E02C0880F991F7E
:1019F0000A94E2F784278C933EC0A8E3B0E0E8E3C2
:101A0000F0E08081482F8981282F30E081E090E04C
:101A1000022E02C0880F991F0A94E2F784278C9344
:101A20002AC0A5E3B0E0E5E3F0E08081482F89819A
:101A3000282F30E081E090E0022E02C0880F991F2D
:101A40000A94E2F784278C9316C0A2E3B0E0E2E3A5
:101A5000F0E08081482F8981282F30E081E090E0FC
:101A6000022E02C0880F991F0A94E2F784278C93F4
:101A700002C081E08B838B8126960FB6F894DEBF7F
:101A80000FBECDBFCF91DF910895DF93CF9300D0EC
:101A900000D0CDB7DEB78A8319828A81282F30E043
:101AA0003C832B838B819C8182309105F1F02B81CB
:101AB0003C812330310534F48B819C818130910548
:101AC00061F02BC02B813C8123303105B1F08B813B
:101AD0009C8184309105C9F020C0ABE3B0E0EBE31A
:101AE000F0E0808180958C931AC0A8E3B0E0E8E331
:101AF000F0E0808180958C9312C0A5E3B0E0E5E32F
:101B0000F0E0808180958C930AC0A2E3B0E0E2E32C
:101B1000F0E0808180958C9302C081E08983898187
:101B20000F900F900F900F90CF91DF910895DF935A
:101B3000CF93CDB7DEB7A7E2B0E0E7E2F0E0808177
:101B40008F778C93A7E2B0E0E7E2F0E080818F7BB3
:101B50008C93A7E2B0E0E7E2F0E080818F7D8C9388
:101B6000A6E2B0E0E6E2F0E080818F7D8C93A6E211
:101B7000B0E0E6E2F0E08081877F8C93A6E2B0E0FF
:101B8000E6E2F0E08081887F8C93A6E2B0E0E6E2B6
:101B9000F0E0808187608C93A6E2B0E0E6E2F0E0BE
:101BA000808180688C9380E0CF91DF910895DF93EE
:101BB000CF93CDB7DEB728970FB6F894DEBF0FBE30
:101BC000CDBF8E8378876F831D8280919401813091
:101BD00019F484E08D836DC019821A821B821C82E5
:101BE0008F819885009719F482E08D8362C08E8181
:101BF000883018F081E08D835CC081E0809394018F
:101C0000A7E2B0E0E7E2F0E08081807E8C93A7E27B
:101C1000B0E0E7E2F0E090818E81892B8C93A6E220
:101C2000B0E0E6E2F0E0808180648C930BC08981B3
:101C30009A81AB81BC810196A11DB11D89839A83D4
:101C4000AB83BC83E6E2F0E0808182958F70882FC1
:101C500090E081709070009761F489819A81AB81E6
:101C6000BC81803523EC920720E0A20720E0B20778
:101C7000F0F289819A81AB81BC81803523EC920797
:101C800020E0A20720E0B20719F483E08D8311C0A1
:101C9000A6E2B0E0E6E2F0E0808180618C93E4E2CD
:101CA000F0E080819181EF81F885918380831092AB
:101CB00094018D8128960FB6F894DEBF0FBECDBF7C
:101CC000CF91DF910895DF93CF9300D000D000D063
:101CD000CDB7DEB78A837C836B835E834D831982A5
:101CE00080919401813019F484E0898340C08B8114
:101CF0009C81009721F08D819E81009719F482E0EC
:101D0000898335C08A81883018F081E089832FC0AB
:101D100081E08093940181E080939501A7E2B0E097
:101D2000E7E2F0E08081807E8C93A7E2B0E0E7E21A
:101D3000F0E090818A81892B8C93A6E2B0E0E6E204
:101D4000F0E0808188608C938D819E8190938F01DB
:101D500080938E018B819C8190939101809390015F
:101D6000A6E2B0E0E6E2F0E0808180648C938981B5
:101D700026960FB6F894DEBF0FBECDBFCF91DF9190
:101D80000895DF93CF9300D00F92CDB7DEB79B833A
:101D90008A83198280919401813019F484E08983C7
:101DA0004FC08A819B81009791F0EA81FB818181FC
:101DB0009281009761F0EA81FB8183819481009791
:101DC00031F0EA81FB8181819281009719F482E0F0
:101DD000898336C081E08093940182E080939501ED
:101DE000109296018A819B81909393018093920136
:101DF000A7E2B0E0E7E2F0E08081807E8C93A7E28A
:101E0000B0E0E7E2F0E04081EA81FB8121813281AC
:101E100080919601882F90E0F901E80FF91F8081E9
:101E2000842B8C93A6E2B0E0E6E2F0E0808188604B
:101E30008C93A6E2B0E0E6E2F0E0808180648C93CF
:101E400089810F900F900F90CF91DF9108951F928D
:101E50000F920FB60F9211242F933F934F935F93DE
:101E60006F937F938F939F93AF93BF93EF93FF9362
:101E7000DF93CF93CDB7DEB7809195018130D9F450
:101E8000A0919001B0919101E4E2F0E08081918114
:101E90008D939C931092940110929501E0918E0184
:101EA000F0918F010995A6E2B0E0E6E2F0E08081D2
:101EB000877F8C9360C080919501823009F05BC070
:101EC000E0919201F09193012381348180919601F8
:101ED000882F90E0880F991FD901A80FB91FE4E25D
:101EE000F0E08081918111969C938E938091960170
:101EF0008F5F80939601E0919201F0919301908120
:101F0000809196019817A1F4109294011092950176
:101F1000E0919201F09193010580F681E02D099501
:101F2000A6E2B0E0E6E2F0E08081877F8C9323C0F8
:101F3000A7E2B0E0E7E2F0E08081807E8C93A7E248
:101F4000B0E0E7E2F0E04081E0919201F09193018E
:101F50002181328180919601882F90E0F901E80F6C
:101F6000F91F8081842B8C93A6E2B0E0E6E2F0E0DA
:101F7000808180648C93CF91DF91FF91EF91BF912D
:101F8000AF919F918F917F916F915F914F913F9111
:101F90002F910F900FBE0F901F901895AF92BF9288
:101FA000CF92DF92EF92FF920F931F93DF93CF9325
:101FB000CDB7DEB760970FB6F894DEBF0FBECDBFCA
:101FC00069837A838B839C832D833E834F835887D9
:101FD000E986FA860B871C87AD86BE86CF86D88AAF
:101FE0002D853E854F85588989859A85AB85BC8529
:101FF00079018A01E81AF90A0A0B1B0B2D8D3E8D17
:102000004F8D58A189819A81AB81BC81281B390BE6
:102010004A0B5B0BC801B7010E94E1407B018C01B8
:102020002D813E814F81588589819A81AB81BC8108
:10203000281B390B4A0B5B0BC801B7010E944241B8
:10204000DA01C9019C01AD0189859A85AB85BC8502
:10205000820F931FA41FB51FBC01CD0160960FB660
:10206000F894DEBF0FBECDBFCF91DF911F910F91CE
:10207000FF90EF90DF90CF90BF90AF900895DF93E7
:10208000CF93CDB7DEB728970FB6F894DEBF0FBE5B
:10209000CDBF6D837E838F83988719821A821B82BE
:1020A0001C8240C089819A81AB81BC812AE030E0EA
:1020B00040E050E0BC01CD010E94E140DC01CB01D9
:1020C00089839A83AB83BC838D819E81AF81B885E0
:1020D0002AE030E040E050E0BC01CD010E94204108
:1020E000DC01CB019C01AD0189819A81AB81BC816E
:1020F000820F931FA41FB51F89839A83AB83BC8370
:102100008D819E81AF81B8852AE030E040E050E0CB
:10211000BC01CD010E942041DA01C9018D839E835B
:10212000AF83B8878D819E81AF81B8850097A10567
:10213000B10509F0B7CF89819A81AB81BC81BC011F
:10214000CD0128960FB6F894DEBF0FBECDBFCF915C
:10215000DF910895DF93CF9300D00F92CDB7DEB714
:1021600089837B836A83EA81FB8180819181A2815B
:10217000B3812AE030E040E050E0BC01CD010E9494
:10218000E140DC01CB01EA81FB8180839183A28362
:10219000B383EA81FB81208131814281538189812E
:1021A000882F90E0A0E0B0E0820F931FA41FB51F1E
:1021B000EA81FB8180839183A283B3830F900F9088
:1021C0000F90CF91DF910895DF93CF9300D00F92BE
:1021D000CDB7DEB79B838A8319828A819B81009762
:1021E00009F44BC0EA81FB81818161E00E9404090E
:1021F000EA81FB81828161E00E940409EA81FB811E
:10220000838161E00E940409EA81FB81848161E0AD
:102210000E940409EA81FB81858161E00E94040932
:10222000EA81FB81868161E00E940409EA81FB81E9
:10223000878161E00E940409EA81FB81808561E079
:102240000E940409EA81FB818081882339F4EA81B4
:10225000FB81808561E00E945E0A11C0EA81FB81FA
:102260008081813039F4EA81FB81808560E00E94C1
:102270005E0A05C081E0898302C082E0898389818A
:102280000F900F900F90CF91DF910895DF93CF9330
:1022900000D00F92CDB7DEB79B838A8319828A81E3
:1022A0009B810097D9F0EA81FB818081882339F4F2
:1022B000EA81FB81808560E00E945E0A11C0EA81AC
:1022C000FB818081813039F4EA81FB81808561E086
:1022D0000E945E0A05C081E0898302C082E0898392
:1022E00089810F900F900F90CF91DF910895DF9328
:1022F000CF9300D00F92CDB7DEB79B838A8319822C
:102300008A819B810097D9F0EA81FB8180818823B3
:1023100039F4EA81FB81808561E00E945E0A11C088
:10232000EA81FB818081813039F4EA81FB818085FB
:1023300060E00E945E0A05C081E0898302C082E0FD
:10234000898389810F900F900F90CF91DF9108952D
:10235000DF93CF93CDB7DEB72A970FB6F894DEBFE1
:102360000FBECDBF8A837C836B8319828A818A30BA
:1023700018F081E089831CC48B819C81009709F44B
:1023800015C4EB81FC818081282F30E03A872987B2
:1023900089859A85009739F029853A85213031055C
:1023A00009F401C200C48A81282F30E038872F83C6
:1023B0008F8198858430910509F4F3C02F81388589
:1023C00025303105ECF48F8198858130910509F431
:1023D00067C02F813885223031052CF48F81988594
:1023E000009799F1E5C32F8138852230310509F432
:1023F00082C08F8198858330910509F4A7C0D8C326
:102400002F8138852730310509F44CC18F8198859B
:10241000883091056CF42F8138852530310509F419
:10242000EBC08F8198858630910509F410C1C0C337
:102430002F8138852830310509F45FC18F81988557
:102440008930910509F484C1B3C3EB81FC8181819A
:1024500061E00E945E0AEB81FC81828161E00E9462
:102460005E0AEB81FC81838161E00E945E0AEB8160
:10247000FC81848161E00E945E0AEB81FC818581A0
:1024800061E00E945E0AEB81FC81868161E00E942E
:102490005E0AEB81FC81878160E00E945E0A88C34E
:1024A000EB81FC81818160E00E945E0AEB81FC810E
:1024B000828161E00E945E0AEB81FC81838161E0A0
:1024C0000E945E0AEB81FC81848160E00E945E0ACA
:1024D000EB81FC81858160E00E945E0AEB81FC81DA
:1024E000868160E00E945E0AEB81FC81878160E06A
:1024F0000E945E0A5DC3EB81FC81818161E00E94E4
:102500005E0AEB81FC81828161E00E945E0AEB81C0
:10251000FC81838160E00E945E0AEB81FC81848102
:1025200061E00E945E0AEB81FC81858161E00E948E
:102530005E0AEB81FC81868160E00E945E0AEB818D
:10254000FC81878161E00E945E0A32C3EB81FC81DD
:10255000818161E00E945E0AEB81FC81828161E001
:102560000E945E0AEB81FC81838161E00E945E0A29
:10257000EB81FC81848161E00E945E0AEB81FC8139
:10258000858160E00E945E0AEB81FC81868160E0CB
:102590000E945E0AEB81FC81878161E00E945E0AF5
:1025A00007C3EB81FC81818160E00E945E0AEB81C0
:1025B000FC81828161E00E945E0AEB81FC81838163
:1025C00061E00E945E0AEB81FC81848160E00E94F0
:1025D0005E0AEB81FC81858160E00E945E0AEB81EE
:1025E000FC81868161E00E945E0AEB81FC8187812B
:1025F00061E00E945E0ADCC2EB81FC81818161E0C6
:102600000E945E0AEB81FC81828160E00E945E0A8A
:10261000EB81FC81838161E00E945E0AEB81FC8199
:10262000848161E00E945E0AEB81FC81858160E02B
:102630000E945E0AEB81FC81868161E00E945E0A55
:10264000EB81FC81878161E00E945E0AB1C2EB816F
:10265000FC81818161E00E945E0AEB81FC818281C4
:1026600060E00E945E0AEB81FC81838161E00E9450
:102670005E0AEB81FC81848161E00E945E0AEB814D
:10268000FC81858161E00E945E0AEB81FC8186818C
:1026900061E00E945E0AEB81FC81878161E00E941B
:1026A0005E0A86C2EB81FC81818161E00E945E0A44
:1026B000EB81FC81828161E00E945E0AEB81FC81FA
:1026C000838161E00E945E0AEB81FC81848160E08D
:1026D0000E945E0AEB81FC81858160E00E945E0AB7
:1026E000EB81FC81868160E00E945E0AEB81FC81C7
:1026F000878160E00E945E0A5BC2EB81FC81818180
:1027000061E00E945E0AEB81FC81828161E00E94AF
:102710005E0AEB81FC81838161E00E945E0AEB81AD
:10272000FC81848161E00E945E0AEB81FC818581ED
:1027300061E00E945E0AEB81FC81868161E00E947B
:102740005E0AEB81FC81878161E00E945E0A30C2F3
:10275000EB81FC81818161E00E945E0AEB81FC815A
:10276000828161E00E945E0AEB81FC81838161E0ED
:102770000E945E0AEB81FC81848161E00E945E0A16
:10278000EB81FC81858160E00E945E0AEB81FC8127
:10279000868161E00E945E0AEB81FC81878161E0B5
:1027A0000E945E0A05C28A81282F30E03E832D8375
:1027B0008D819E818430910509F4F3C02D813E8185
:1027C00025303105ECF48D819E818130910509F42D
:1027D00067C02D813E81223031052CF48D819E8190
:1027E000009799F1E5C12D813E812230310509F430
:1027F00082C08D819E818330910509F4A7C0D8C124
:102800002D813E812730310509F44CC18D819E8197
:10281000883091056CF42D813E812530310509F415
:10282000EBC08D819E818630910509F410C1C0C135
:102830002D813E812830310509F45FC18D819E8153
:102840008930910509F484C1B3C1EB81FC81818198
:1028500060E00E945E0AEB81FC81828160E00E9460
:102860005E0AEB81FC81838160E00E945E0AEB815D
:10287000FC81848160E00E945E0AEB81FC8185819D
:1028800060E00E945E0AEB81FC81868160E00E942C
:102890005E0AEB81FC81878161E00E945E0A88C14B
:1028A000EB81FC81818161E00E945E0AEB81FC8109
:1028B000828160E00E945E0AEB81FC81838160E09E
:1028C0000E945E0AEB81FC81848161E00E945E0AC5
:1028D000EB81FC81858161E00E945E0AEB81FC81D5
:1028E000868161E00E945E0AEB81FC81878161E064
:1028F0000E945E0A5DC1EB81FC81818160E00E94E3
:102900005E0AEB81FC81828160E00E945E0AEB81BD
:10291000FC81838161E00E945E0AEB81FC818481FD
:1029200060E00E945E0AEB81FC81858160E00E948C
:102930005E0AEB81FC81868161E00E945E0AEB8188
:10294000FC81878160E00E945E0A32C1EB81FC81DC
:10295000818160E00E945E0AEB81FC81828160E0FF
:102960000E945E0AEB81FC81838160E00E945E0A26
:10297000EB81FC81848160E00E945E0AEB81FC8136
:10298000858161E00E945E0AEB81FC81868161E0C5
:102990000E945E0AEB81FC81878160E00E945E0AF2
:1029A00007C1EB81FC81818161E00E945E0AEB81BD
:1029B000FC81828160E00E945E0AEB81FC81838160
:1029C00060E00E945E0AEB81FC81848161E00E94EC
:1029D0005E0AEB81FC81858161E00E945E0AEB81E9
:1029E000FC81868160E00E945E0AEB81FC81878128
:1029F00060E00E945E0ADCC0EB81FC81818160E0C6
:102A00000E945E0AEB81FC81828161E00E945E0A85
:102A1000EB81FC81838160E00E945E0AEB81FC8196
:102A2000848160E00E945E0AEB81FC81858161E027
:102A30000E945E0AEB81FC81868160E00E945E0A52
:102A4000EB81FC81878160E00E945E0AB1C0EB816E
:102A5000FC81818160E00E945E0AEB81FC818281C1
:102A600061E00E945E0AEB81FC81838160E00E944C
:102A70005E0AEB81FC81848160E00E945E0AEB814A
:102A8000FC81858160E00E945E0AEB81FC81868189
:102A900060E00E945E0AEB81FC81878160E00E9419
:102AA0005E0A86C0EB81FC81818160E00E945E0A43
:102AB000EB81FC81828160E00E945E0AEB81FC81F7
:102AC000838160E00E945E0AEB81FC81848161E089
:102AD0000E945E0AEB81FC81858161E00E945E0AB2
:102AE000EB81FC81868161E00E945E0AEB81FC81C2
:102AF000878161E00E945E0A5BC0EB81FC8181817D
:102B000060E00E945E0AEB81FC81828160E00E94AD
:102B10005E0AEB81FC81838160E00E945E0AEB81AA
:102B2000FC81848160E00E945E0AEB81FC818581EA
:102B300060E00E945E0AEB81FC81868160E00E9479
:102B40005E0AEB81FC81878160E00E945E0A30C0F2
:102B5000EB81FC81818160E00E945E0AEB81FC8157
:102B6000828160E00E945E0AEB81FC81838160E0EB
:102B70000E945E0AEB81FC81848160E00E945E0A13
:102B8000EB81FC81858161E00E945E0AEB81FC8122
:102B9000868160E00E945E0AEB81FC81878160E0B3
:102BA0000E945E0A05C081E0898302C082E08983B9
:102BB00089812A960FB6F894DEBF0FBECDBFCF91A4
:102BC000DF910895DF93CF9300D00F92CDB7DEB79A
:102BD0009B838A8319828A819B81009791F0EA8185
:102BE000FB81808160E00E940409EA81FB8182818F
:102BF000882349F4EA81FB81808161E00E945E0ABA
:102C000002C082E0898389810F900F900F90CF914D
:102C1000DF910895DF93CF93CDB7DEB7A4970FB6BA
:102C2000F894DEBF0FBECDBF98A38F8F7AA369A3A0
:102C30001D8E8F8D98A1009709F42DC189A19AA1AD
:102C4000009709F428C1EF8DF8A180819E01225ED2
:102C50003F4FB9010E94B80BEF8DF8A18281282F58
:102C600030E03CA32BA38BA19CA1009739F02BA1B2
:102C70003CA12130310509F486C00AC18E8D88231C
:102C800009F07CC0E9A1FAA11082EF8DF8A1818141
:102C9000882309F002C180E090E0A8E4B3E4898FC2
:102CA0009A8FAB8FBC8F698D7A8D8B8D9C8D20E038
:102CB00030E04AE755E40E941F02DC01CB018D8B16
:102CC0009E8BAF8BB88F6D897E898F89988D20E020
:102CD00030E040E85FE30E94250488232CF481E083
:102CE00090E09C8B8B8B3FC06D897E898F89988DFE
:102CF00020E03FEF4FE757E40E94C50318164CF55C
:102D0000698D7A8D8B8D9C8D20E030E040E251E41E
:102D10000E941F02DC01CB01BC01CD010E944900D1
:102D2000DC01CB019C8B8B8B0FC080E991E09A8BEF
:102D3000898B89899A890197F1F79A8B898B8B897D
:102D40009C8901979C8B8B8B8B899C89009769F759
:102D5000A4C06D897E898F89988D0E944900DC010D
:102D6000CB019C8B8B8B8B899C89988B8F878F85D4
:102D700098890197F1F7988B8F878FC0E9A1FAA105
:102D800081E080838AC08E8D813009F07CC0E9A10A
:102D9000FAA11082EF8DF8A18181882309F07DC00E
:102DA00080E090E0A8E4B3E48B879C87AD87BE8782
:102DB0006B857C858D859E8520E030E04AE755E473
:102DC0000E941F02DC01CB018F839887A987BA87F5
:102DD0006F81788589859A8520E030E040E85FE35F
:102DE0000E94250488232CF481E090E09E838D834B
:102DF0003FC06F81788589859A8520E03FEF4FE756
:102E000057E40E94C50318164CF56B857C858D85AB
:102E10009E8520E030E040E251E40E941F02DC0188
:102E2000CB01BC01CD010E944900DC01CB019E8396
:102E30008D830FC080E991E09C838B838B819C8183
:102E40000197F1F79C838B838D819E8101979E83EF
:102E50008D838D819E81009769F71FC06F81788572
:102E600089859A850E944900DC01CB019E838D8370
:102E70008D819E819A83898389819A810197F1F757
:102E80009A8389830AC0E9A1FAA181E0808305C001
:102E900081E08D8F02C082E08D8F8D8DA4960FB65C
:102EA000F894DEBF0FBECDBFCF91DF910895DF93C1
:102EB000CF9300D00F92CDB7DEB79B838A83198260
:102EC0008A819B81009709F46FC0EA81FB8181812F
:102ED00061E00E940409EA81FB81828161E00E9435
:102EE0000409EA81FB81838161E00E940409EA818F
:102EF000FB81848161E00E940409EA81FB81858174
:102F000061E00E940409EA81FB81868161E00E9400
:102F10000409EA81FB81878161E00E940409EA815A
:102F2000FB81808561E00E940409EA81FB81818543
:102F300061E00E940409EA81FB81828561E00E94D0
:102F40000409EA81FB818081882399F4EA81FB816D
:102F5000818561E00E945E0AEA81FB81828561E0F1
:102F60000E945E0AEA81FB81808560E00E945E0A21
:102F70001DC0EA81FB818081813099F4EA81FB8167
:102F8000818560E00E945E0AEA81FB81828560E0C3
:102F90000E945E0AEA81FB81808561E00E945E0AF0
:102FA00005C081E0898302C082E0898389810F9016
:102FB0000F900F90CF91DF910895DF93CF93CDB70E
:102FC000DEB7C854D0400FB6F894DEBF0FBECDBFF9
:102FD0008EAFFE01FF96718360831DAE8EAD843689
:102FE00020F081E08DAF0C941526FE01FF968081C4
:102FF0009181009711F40C9413268EAD9AE0692FFD
:103000000E9400418CAF8EAD9AE0692F0E94004172
:10301000892F8BAFFE01FF960190F081E02D80811A
:10302000882309F0FAC61AAE19AEE9C6FE01FF966A
:103030000190F081E02D818560E00E945E0A8CADF8
:10304000282F30E029963FAF2EAF299729968EADD5
:103050009FAD29978430910509F460C129962EAD62
:103060003FAD29972530310544F529968EAD9FADAA
:1030700029978130910509F491C029962EAD3FAD75
:1030800029972230310544F429968EAD9FAD2997BA
:10309000009709F443C0C1C229962EAD3FAD2997D0
:1030A0002230310509F4BAC029968EAD9FAD29971B
:1030B0008330910509F4F2C0B0C229962EAD3FAD20
:1030C00029972730310509F4E9C129968EAD9FADC6
:1030D0002997883091058CF429962EAD3FAD29971C
:1030E0002530310509F45AC129968EAD9FAD299737
:1030F0008630910509F492C190C229962EAD3FAD5C
:1031000029972830310509F409C229968EAD9FAD63
:1031100029978930910509F441C27FC2FE01FF96CB
:103120000190F081E02D818161E00E945E0AFE0144
:10313000FF960190F081E02D828161E00E945E0A9D
:10314000FE01FF960190F081E02D838161E00E94F5
:103150005E0AFE01FF960190F081E02D848161E01E
:103160000E945E0AFE01FF960190F081E02D8581AC
:1031700061E00E945E0AFE01FF960190F081E02D61
:10318000868161E00E945E0AFE01FF960190F08157
:10319000E02D878160E00E945E0A3FC2FE01FF963B
:1031A0000190F081E02D818160E00E945E0AFE01C5
:1031B000FF960190F081E02D828161E00E945E0A1D
:1031C000FE01FF960190F081E02D838161E00E9475
:1031D0005E0AFE01FF960190F081E02D848160E09F
:1031E0000E945E0AFE01FF960190F081E02D85812C
:1031F00060E00E945E0AFE01FF960190F081E02DE2
:10320000868160E00E945E0AFE01FF960190F081D7
:10321000E02D878160E00E945E0AFFC1FE01FF96FB
:103220000190F081E02D818161E00E945E0AFE0143
:10323000FF960190F081E02D828161E00E945E0A9C
:10324000FE01FF960190F081E02D838160E00E94F5
:103250005E0AFE01FF960190F081E02D848161E01D
:103260000E945E0AFE01FF960190F081E02D8581AB
:1032700061E00E945E0AFE01FF960190F081E02D60
:10328000868160E00E945E0AFE01FF960190F08157
:10329000E02D878161E00E945E0ABFC1FE01FF96BA
:1032A0000190F081E02D818161E00E945E0AFE01C3
:1032B000FF960190F081E02D828161E00E945E0A1C
:1032C000FE01FF960190F081E02D838161E00E9474
:1032D0005E0AFE01FF960190F081E02D848161E09D
:1032E0000E945E0AFE01FF960190F081E02D85812B
:1032F00060E00E945E0AFE01FF960190F081E02DE1
:10330000868160E00E945E0AFE01FF960190F081D6
:10331000E02D878161E00E945E0A7FC1FE01FF9679
:103320000190F081E02D818160E00E945E0AFE0143
:10333000FF960190F081E02D828161E00E945E0A9B
:10334000FE01FF960190F081E02D838161E00E94F3
:103350005E0AFE01FF960190F081E02D848160E01D
:103360000E945E0AFE01FF960190F081E02D8581AA
:1033700060E00E945E0AFE01FF960190F081E02D60
:10338000868161E00E945E0AFE01FF960190F08155
:10339000E02D878161E00E945E0A3FC1FE01FF9639
:1033A0000190F081E02D818161E00E945E0AFE01C2
:1033B000FF960190F081E02D828160E00E945E0A1C
:1033C000FE01FF960190F081E02D838161E00E9473
:1033D0005E0AFE01FF960190F081E02D848161E09C
:1033E0000E945E0AFE01FF960190F081E02D85812A
:1033F00060E00E945E0AFE01FF960190F081E02DE0
:10340000868161E00E945E0AFE01FF960190F081D4
:10341000E02D878161E00E945E0AFFC0FE01FF96F9
:103420000190F081E02D818161E00E945E0AFE0141
:10343000FF960190F081E02D828160E00E945E0A9B
:10344000FE01FF960190F081E02D838161E00E94F2
:103450005E0AFE01FF960190F081E02D848161E01B
:103460000E945E0AFE01FF960190F081E02D8581A9
:1034700061E00E945E0AFE01FF960190F081E02D5E
:10348000868161E00E945E0AFE01FF960190F08154
:10349000E02D878161E00E945E0ABFC0FE01FF96B9
:1034A0000190F081E02D818161E00E945E0AFE01C1
:1034B000FF960190F081E02D828161E00E945E0A1A
:1034C000FE01FF960190F081E02D838161E00E9472
:1034D0005E0AFE01FF960190F081E02D848160E09C
:1034E0000E945E0AFE01FF960190F081E02D858129
:1034F00060E00E945E0AFE01FF960190F081E02DDF
:10350000868160E00E945E0AFE01FF960190F081D4
:10351000E02D878160E00E945E0A7FC0FE01FF9679
:103520000190F081E02D818161E00E945E0AFE0140
:10353000FF960190F081E02D828161E00E945E0A99
:10354000FE01FF960190F081E02D838161E00E94F1
:103550005E0AFE01FF960190F081E02D848161E01A
:103560000E945E0AFE01FF960190F081E02D8581A8
:1035700061E00E945E0AFE01FF960190F081E02D5D
:10358000868161E00E945E0AFE01FF960190F08153
:10359000E02D878161E00E945E0A3FC0FE01FF9638
:1035A0000190F081E02D818161E00E945E0AFE01C0
:1035B000FF960190F081E02D828161E00E945E0A19
:1035C000FE01FF960190F081E02D838161E00E9471
:1035D0005E0AFE01FF960190F081E02D848161E09A
:1035E0000E945E0AFE01FF960190F081E02D858128
:1035F00060E00E945E0AFE01FF960190F081E02DDE
:10360000868161E00E945E0AFE01FF960190F081D2
:10361000E02D878161E00E945E0A80E090E0A0E2F8
:10362000B1E48DAB9EABAFABB8AF6DA97EA98FA94E
:1036300098AD20E030E04AE755E40E941F02DC012B
:10364000CB0189AB9AABABABBCAB69A97AA98BA90F
:103650009CA920E030E040E85FE30E942504882335
:103660002CF481E090E098AB8FA73FC069A97AA9BC
:103670008BA99CA920E03FEF4FE757E40E94C503C8
:1036800018164CF56DA97EA98FA998AD20E030E001
:1036900040E251E40E941F02DC01CB01BC01CD01DC
:1036A0000E944900DC01CB0198AB8FA70FC080E9D5
:1036B00091E09EA78DA78DA59EA50197F1F79EA7E6
:1036C0008DA78FA598A9019798AB8FA78FA598A9CB
:1036D000009769F714C069A97AA98BA99CA90E94CF
:1036E0004900DC01CB0198AB8FA78FA598A99CA7B7
:1036F0008BA78BA59CA50197F1F79CA78BA7FE0133
:10370000FF960190F081E02D818561E00E945E0AC4
:10371000FE01FF960190F081E02D828560E00E941D
:103720005E0A8BAD282F30E027963FAF2EAF27974C
:1037300027968EAD9FAD27978430910509F460C11F
:1037400027962EAD3FAD27972530310544F52796B6
:103750008EAD9FAD27978130910509F491C02796D2
:103760002EAD3FAD27972230310544F427968EAD1C
:103770009FAD2797009709F443C0C1C227962EAD8D
:103780003FAD27972230310509F4BAC027968EAD98
:103790009FAD27978330910509F4F2C0B0C22796F8
:1037A0002EAD3FAD27972730310509F4E9C12796A3
:1037B0008EAD9FAD2797883091058CF427962EAD5E
:1037C0003FAD27972530310509F45AC127968EADB4
:1037D0009FAD27978630910509F492C190C2279634
:1037E0002EAD3FAD27972830310509F409C2279641
:1037F0008EAD9FAD27978930910509F441C27FC2F4
:10380000FE01FF960190F081E02D818161E00E9430
:103810005E0AFE01FF960190F081E02D828161E059
:103820000E945E0AFE01FF960190F081E02D8381E7
:1038300061E00E945E0AFE01FF960190F081E02D9A
:10384000848161E00E945E0AFE01FF960190F08192
:10385000E02D858161E00E945E0AFE01FF960190E5
:10386000F081E02D868161E00E945E0AFE01FF96F4
:103870000190F081E02D878160E00E945E0A3FC2E6
:10388000FE01FF960190F081E02D818160E00E94B1
:103890005E0AFE01FF960190F081E02D828161E0D9
:1038A0000E945E0AFE01FF960190F081E02D838167
:1038B00061E00E945E0AFE01FF960190F081E02D1A
:1038C000848160E00E945E0AFE01FF960190F08113
:1038D000E02D858160E00E945E0AFE01FF96019066
:1038E000F081E02D868160E00E945E0AFE01FF9675
:1038F0000190F081E02D878160E00E945E0AFFC1A7
:10390000FE01FF960190F081E02D818161E00E942F
:103910005E0AFE01FF960190F081E02D828161E058
:103920000E945E0AFE01FF960190F081E02D8381E6
:1039300060E00E945E0AFE01FF960190F081E02D9A
:10394000848161E00E945E0AFE01FF960190F08191
:10395000E02D858161E00E945E0AFE01FF960190E4
:10396000F081E02D868160E00E945E0AFE01FF96F4
:103970000190F081E02D878161E00E945E0ABFC165
:10398000FE01FF960190F081E02D818161E00E94AF
:103990005E0AFE01FF960190F081E02D828161E0D8
:1039A0000E945E0AFE01FF960190F081E02D838166
:1039B00061E00E945E0AFE01FF960190F081E02D19
:1039C000848161E00E945E0AFE01FF960190F08111
:1039D000E02D858160E00E945E0AFE01FF96019065
:1039E000F081E02D868160E00E945E0AFE01FF9674
:1039F0000190F081E02D878161E00E945E0A7FC125
:103A0000FE01FF960190F081E02D818160E00E942F
:103A10005E0AFE01FF960190F081E02D828161E057
:103A20000E945E0AFE01FF960190F081E02D8381E5
:103A300061E00E945E0AFE01FF960190F081E02D98
:103A4000848160E00E945E0AFE01FF960190F08191
:103A5000E02D858160E00E945E0AFE01FF960190E4
:103A6000F081E02D868161E00E945E0AFE01FF96F2
:103A70000190F081E02D878161E00E945E0A3FC1E4
:103A8000FE01FF960190F081E02D818161E00E94AE
:103A90005E0AFE01FF960190F081E02D828160E0D8
:103AA0000E945E0AFE01FF960190F081E02D838165
:103AB00061E00E945E0AFE01FF960190F081E02D18
:103AC000848161E00E945E0AFE01FF960190F08110
:103AD000E02D858160E00E945E0AFE01FF96019064
:103AE000F081E02D868161E00E945E0AFE01FF9672
:103AF0000190F081E02D878161E00E945E0AFFC0A5
:103B0000FE01FF960190F081E02D818161E00E942D
:103B10005E0AFE01FF960190F081E02D828160E057
:103B20000E945E0AFE01FF960190F081E02D8381E4
:103B300061E00E945E0AFE01FF960190F081E02D97
:103B4000848161E00E945E0AFE01FF960190F0818F
:103B5000E02D858161E00E945E0AFE01FF960190E2
:103B6000F081E02D868161E00E945E0AFE01FF96F1
:103B70000190F081E02D878161E00E945E0ABFC064
:103B8000FE01FF960190F081E02D818161E00E94AD
:103B90005E0AFE01FF960190F081E02D828161E0D6
:103BA0000E945E0AFE01FF960190F081E02D838164
:103BB00061E00E945E0AFE01FF960190F081E02D17
:103BC000848160E00E945E0AFE01FF960190F08110
:103BD000E02D858160E00E945E0AFE01FF96019063
:103BE000F081E02D868160E00E945E0AFE01FF9672
:103BF0000190F081E02D878160E00E945E0A7FC025
:103C0000FE01FF960190F081E02D818161E00E942C
:103C10005E0AFE01FF960190F081E02D828161E055
:103C20000E945E0AFE01FF960190F081E02D8381E3
:103C300061E00E945E0AFE01FF960190F081E02D96
:103C4000848161E00E945E0AFE01FF960190F0818E
:103C5000E02D858161E00E945E0AFE01FF960190E1
:103C6000F081E02D868161E00E945E0AFE01FF96F0
:103C70000190F081E02D878161E00E945E0A3FC0E3
:103C8000FE01FF960190F081E02D818161E00E94AC
:103C90005E0AFE01FF960190F081E02D828161E0D5
:103CA0000E945E0AFE01FF960190F081E02D838163
:103CB00061E00E945E0AFE01FF960190F081E02D16
:103CC000848161E00E945E0AFE01FF960190F0810E
:103CD000E02D858160E00E945E0AFE01FF96019062
:103CE000F081E02D868161E00E945E0AFE01FF9670
:103CF0000190F081E02D878161E00E945E0A80E002
:103D000090E0A0E2B1E48FA398A7A9A7BAA76FA1FA
:103D100078A589A59AA520E030E04AE755E40E94FD
:103D20001F02DC01CB018BA39CA3ADA3BEA36BA19F
:103D30007CA18DA19EA120E030E040E85FE30E94DD
:103D4000250488232CF481E090E09AA389A33FC046
:103D50006BA17CA18DA19EA120E03FEF4FE757E42E
:103D60000E94C50318164CF56FA178A589A59AA5E0
:103D700020E030E040E251E40E941F02DC01CB0170
:103D8000BC01CD010E944900DC01CB019AA389A3AB
:103D90000FC080E991E098A38F8F8F8D98A1019734
:103DA000F1F798A38F8F89A19AA101979AA389A36C
:103DB00089A19AA1009769F714C06BA17CA18DA17C
:103DC0009EA10E944900DC01CB019AA389A389A18D
:103DD0009AA19E8F8D8F8D8D9E8D0197F1F79E8F6D
:103DE0008D8FFE01FF960190F081E02D828561E0CC
:103DF0000E945E0A89AD9AAD01969AAF89AFFE0125
:103E0000FF960190F081E02D2385348589AD9AAD30
:103E10008217930708F40AC908C7FE01FF960190AC
:103E2000F081E02D8081813009F0FAC61AAE19AE1A
:103E3000E9C6FE01FF960190F081E02D818561E0E9
:103E40000E945E0A8CAD282F30E025963FAF2EAF42
:103E5000259725968EAD9FAD25978430910509F461
:103E600060C125962EAD3FAD25972530310544F52F
:103E700025968EAD9FAD25978130910509F491C0AF
:103E800025962EAD3FAD25972230310544F4259679
:103E90008EAD9FAD2597009709F443C0C1C225960A
:103EA0002EAD3FAD25972230310509F4BAC02596D5
:103EB0008EAD9FAD25978330910509F4F2C0B0C255
:103EC00025962EAD3FAD25972730310509F4E9C180
:103ED00025968EAD9FAD2597883091058CF425965B
:103EE0002EAD3FAD25972530310509F45AC12596F1
:103EF0008EAD9FAD25978630910509F492C190C291
:103F000025962EAD3FAD25972830310509F409C21D
:103F100025968EAD9FAD25978930910509F441C254
:103F20007FC2FE01FF960190F081E02D818160E06B
:103F30000E945E0AFE01FF960190F081E02D8281D1
:103F400060E00E945E0AFE01FF960190F081E02D84
:103F5000838160E00E945E0AFE01FF960190F0817D
:103F6000E02D848160E00E945E0AFE01FF960190D0
:103F7000F081E02D858160E00E945E0AFE01FF96DF
:103F80000190F081E02D868160E00E945E0AFE01D2
:103F9000FF960190F081E02D878161E00E945E0A2A
:103FA0003FC2FE01FF960190F081E02D818161E02A
:103FB0000E945E0AFE01FF960190F081E02D828151
:103FC00060E00E945E0AFE01FF960190F081E02D04
:103FD000838160E00E945E0AFE01FF960190F081FD
:103FE000E02D848161E00E945E0AFE01FF9601904F
:103FF000F081E02D858161E00E945E0AFE01FF965E
:104000000190F081E02D868161E00E945E0AFE0150
:10401000FF960190F081E02D878161E00E945E0AA9
:10402000FFC1FE01FF960190F081E02D818160E0EB
:104030000E945E0AFE01FF960190F081E02D8281D0
:1040400060E00E945E0AFE01FF960190F081E02D83
:10405000838161E00E945E0AFE01FF960190F0817B
:10406000E02D848160E00E945E0AFE01FF960190CF
:10407000F081E02D858160E00E945E0AFE01FF96DE
:104080000190F081E02D868161E00E945E0AFE01D0
:10409000FF960190F081E02D878160E00E945E0A2A
:1040A000BFC1FE01FF960190F081E02D818160E0AB
:1040B0000E945E0AFE01FF960190F081E02D828150
:1040C00060E00E945E0AFE01FF960190F081E02D03
:1040D000838160E00E945E0AFE01FF960190F081FC
:1040E000E02D848160E00E945E0AFE01FF9601904F
:1040F000F081E02D858161E00E945E0AFE01FF965D
:104100000190F081E02D868161E00E945E0AFE014F
:10411000FF960190F081E02D878160E00E945E0AA9
:104120007FC1FE01FF960190F081E02D818161E069
:104130000E945E0AFE01FF960190F081E02D8281CF
:1041400060E00E945E0AFE01FF960190F081E02D82
:10415000838160E00E945E0AFE01FF960190F0817B
:10416000E02D848161E00E945E0AFE01FF960190CD
:10417000F081E02D858161E00E945E0AFE01FF96DC
:104180000190F081E02D868160E00E945E0AFE01D0
:10419000FF960190F081E02D878160E00E945E0A29
:1041A0003FC1FE01FF960190F081E02D818160E02A
:1041B0000E945E0AFE01FF960190F081E02D82814F
:1041C00061E00E945E0AFE01FF960190F081E02D01
:1041D000838160E00E945E0AFE01FF960190F081FB
:1041E000E02D848160E00E945E0AFE01FF9601904E
:1041F000F081E02D858161E00E945E0AFE01FF965C
:104200000190F081E02D868160E00E945E0AFE014F
:10421000FF960190F081E02D878160E00E945E0AA8
:10422000FFC0FE01FF960190F081E02D818160E0EA
:104230000E945E0AFE01FF960190F081E02D8281CE
:1042400061E00E945E0AFE01FF960190F081E02D80
:10425000838160E00E945E0AFE01FF960190F0817A
:10426000E02D848160E00E945E0AFE01FF960190CD
:10427000F081E02D858160E00E945E0AFE01FF96DC
:104280000190F081E02D868160E00E945E0AFE01CF
:10429000FF960190F081E02D878160E00E945E0A28
:1042A000BFC0FE01FF960190F081E02D818160E0AA
:1042B0000E945E0AFE01FF960190F081E02D82814E
:1042C00060E00E945E0AFE01FF960190F081E02D01
:1042D000838160E00E945E0AFE01FF960190F081FA
:1042E000E02D848161E00E945E0AFE01FF9601904C
:1042F000F081E02D858161E00E945E0AFE01FF965B
:104300000190F081E02D868161E00E945E0AFE014D
:10431000FF960190F081E02D878161E00E945E0AA6
:104320007FC0FE01FF960190F081E02D818160E069
:104330000E945E0AFE01FF960190F081E02D8281CD
:1043400060E00E945E0AFE01FF960190F081E02D80
:10435000838160E00E945E0AFE01FF960190F08179
:10436000E02D848160E00E945E0AFE01FF960190CC
:10437000F081E02D858160E00E945E0AFE01FF96DB
:104380000190F081E02D868160E00E945E0AFE01CE
:10439000FF960190F081E02D878160E00E945E0A27
:1043A0003FC0FE01FF960190F081E02D818160E029
:1043B0000E945E0AFE01FF960190F081E02D82814D
:1043C00060E00E945E0AFE01FF960190F081E02D00
:1043D000838160E00E945E0AFE01FF960190F081F9
:1043E000E02D848160E00E945E0AFE01FF9601904C
:1043F000F081E02D858161E00E945E0AFE01FF965A
:104400000190F081E02D868160E00E945E0AFE014D
:10441000FF960190F081E02D878160E00E945E0AA6
:1044200080E090E0A0E2B1E4898F9A8FAB8FBC8FDF
:10443000698D7A8D8B8D9C8D20E030E04AE755E4C4
:104440000E941F02DC01CB018D8B9E8BAF8BB88F3E
:104450006D897E898F89988D20E030E040E85FE3A8
:104460000E94250488232CF481E090E09C8B8B8BA8
:104470003FC06D897E898F89988D20E03FEF4FE79F
:1044800057E40E94C50318164CF5698D7A8D8B8D03
:104490009C8D20E030E040E251E40E941F02DC01EC
:1044A000CB01BC01CD010E944900DC01CB019C8BFA
:1044B0008B8B0FC080E991E09A8B898B89899A89CF
:1044C0000197F1F79A8B898B8B899C8901979C8B3B
:1044D0008B8B8B899C89009769F714C06D897E89C5
:1044E0008F89988D0E944900DC01CB019C8B8B8BBE
:1044F0008B899C89988B8F878F8598890197F1F795
:10450000988B8F87FE01FF960190F081E02D8185C9
:1045100060E00E945E0AFE01FF960190F081E02DAE
:10452000828561E00E945E0A8BAD282F30E02396E1
:104530003FAF2EAF239723968EAD9FAD2397843048
:10454000910509F460C123962EAD3FAD2397253028
:10455000310544F523968EAD9FAD239781309105AB
:1045600009F491C023962EAD3FAD2397223031053B
:1045700044F423968EAD9FAD2397009709F443C072
:10458000C1C223962EAD3FAD23972230310509F4E9
:10459000BAC023968EAD9FAD23978330910509F461
:1045A000F2C0B0C223962EAD3FAD23972730310520
:1045B00009F4E9C123968EAD9FAD2397883091050C
:1045C0008CF423962EAD3FAD23972530310509F4A9
:1045D0005AC123968EAD9FAD23978630910509F47D
:1045E00092C190C223962EAD3FAD2397283031055E
:1045F00009F409C223968EAD9FAD239789309105AA
:1046000009F441C27FC2FE01FF960190F081E02DC6
:10461000818160E00E945E0AFE01FF960190F081B8
:10462000E02D828160E00E945E0AFE01FF9601900B
:10463000F081E02D838160E00E945E0AFE01FF961A
:104640000190F081E02D848160E00E945E0AFE010D
:10465000FF960190F081E02D858160E00E945E0A66
:10466000FE01FF960190F081E02D868160E00E94BE
:104670005E0AFE01FF960190F081E02D878161E0E6
:104680000E945E0A3FC2FE01FF960190F081E02D7C
:10469000818161E00E945E0AFE01FF960190F08137
:1046A000E02D828160E00E945E0AFE01FF9601908B
:1046B000F081E02D838160E00E945E0AFE01FF969A
:1046C0000190F081E02D848161E00E945E0AFE018C
:1046D000FF960190F081E02D858161E00E945E0AE5
:1046E000FE01FF960190F081E02D868161E00E943D
:1046F0005E0AFE01FF960190F081E02D878161E066
:104700000E945E0AFFC1FE01FF960190F081E02D3C
:10471000818160E00E945E0AFE01FF960190F081B7
:10472000E02D828160E00E945E0AFE01FF9601900A
:10473000F081E02D838161E00E945E0AFE01FF9618
:104740000190F081E02D848160E00E945E0AFE010C
:10475000FF960190F081E02D858160E00E945E0A65
:10476000FE01FF960190F081E02D868161E00E94BC
:104770005E0AFE01FF960190F081E02D878160E0E6
:104780000E945E0ABFC1FE01FF960190F081E02DFC
:10479000818160E00E945E0AFE01FF960190F08137
:1047A000E02D828160E00E945E0AFE01FF9601908A
:1047B000F081E02D838160E00E945E0AFE01FF9699
:1047C0000190F081E02D848160E00E945E0AFE018C
:1047D000FF960190F081E02D858161E00E945E0AE4
:1047E000FE01FF960190F081E02D868161E00E943C
:1047F0005E0AFE01FF960190F081E02D878160E066
:104800000E945E0A7FC1FE01FF960190F081E02DBB
:10481000818161E00E945E0AFE01FF960190F081B5
:10482000E02D828160E00E945E0AFE01FF96019009
:10483000F081E02D838160E00E945E0AFE01FF9618
:104840000190F081E02D848161E00E945E0AFE010A
:10485000FF960190F081E02D858161E00E945E0A63
:10486000FE01FF960190F081E02D868160E00E94BC
:104870005E0AFE01FF960190F081E02D878160E0E5
:104880000E945E0A3FC1FE01FF960190F081E02D7B
:10489000818160E00E945E0AFE01FF960190F08136
:1048A000E02D828161E00E945E0AFE01FF96019088
:1048B000F081E02D838160E00E945E0AFE01FF9698
:1048C0000190F081E02D848160E00E945E0AFE018B
:1048D000FF960190F081E02D858161E00E945E0AE3
:1048E000FE01FF960190F081E02D868160E00E943C
:1048F0005E0AFE01FF960190F081E02D878160E065
:104900000E945E0AFFC0FE01FF960190F081E02D3B
:10491000818160E00E945E0AFE01FF960190F081B5
:10492000E02D828161E00E945E0AFE01FF96019007
:10493000F081E02D838160E00E945E0AFE01FF9617
:104940000190F081E02D848160E00E945E0AFE010A
:10495000FF960190F081E02D858160E00E945E0A63
:10496000FE01FF960190F081E02D868160E00E94BB
:104970005E0AFE01FF960190F081E02D878160E0E4
:104980000E945E0ABFC0FE01FF960190F081E02DFB
:10499000818160E00E945E0AFE01FF960190F08135
:1049A000E02D828160E00E945E0AFE01FF96019088
:1049B000F081E02D838160E00E945E0AFE01FF9697
:1049C0000190F081E02D848161E00E945E0AFE0189
:1049D000FF960190F081E02D858161E00E945E0AE2
:1049E000FE01FF960190F081E02D868161E00E943A
:1049F0005E0AFE01FF960190F081E02D878161E063
:104A00000E945E0A7FC0FE01FF960190F081E02DBA
:104A1000818160E00E945E0AFE01FF960190F081B4
:104A2000E02D828160E00E945E0AFE01FF96019007
:104A3000F081E02D838160E00E945E0AFE01FF9616
:104A40000190F081E02D848160E00E945E0AFE0109
:104A5000FF960190F081E02D858160E00E945E0A62
:104A6000FE01FF960190F081E02D868160E00E94BA
:104A70005E0AFE01FF960190F081E02D878160E0E3
:104A80000E945E0A3FC0FE01FF960190F081E02D7A
:104A9000818160E00E945E0AFE01FF960190F08134
:104AA000E02D828160E00E945E0AFE01FF96019087
:104AB000F081E02D838160E00E945E0AFE01FF9696
:104AC0000190F081E02D848160E00E945E0AFE0189
:104AD000FF960190F081E02D858161E00E945E0AE1
:104AE000FE01FF960190F081E02D868160E00E943A
:104AF0005E0AFE01FF960190F081E02D878160E063
:104B00000E945E0A80E090E0A0E2B1E48B879C877F
:104B1000AD87BE876B857C858D859E8520E030E0E6
:104B20004AE755E40E941F02DC01CB018F8398877E
:104B3000A987BA876F81788589859A8520E030E0DA
:104B400040E85FE30E94250488232CF481E090E094
:104B50009E838D833FC06F81788589859A8520E00B
:104B60003FEF4FE757E40E94C50318164CF56B85DD
:104B70007C858D859E8520E030E040E251E40E94F6
:104B80001F02DC01CB01BC01CD010E944900DC0108
:104B9000CB019E838D830FC080E991E09C838B8342
:104BA0008B819C810197F1F79C838B838D819E8102
:104BB00001979E838D838D819E81009769F714C034
:104BC0006F81788589859A850E944900DC01CB0137
:104BD0009E838D838D819E819A83898389819A8129
:104BE0000197F1F79A838983FE01FF960190F08186
:104BF000E02D828560E00E945E0A89AD9AAD019643
:104C00009AAF89AFFE01FF960190F081E02D2385D8
:104C1000348589AD9AAD8217930708F40AC905C097
:104C200081E08DAF02C082E08DAF8DADC85BDF4FFC
:104C30000FB6F894DEBF0FBECDBFCF91DF910895C0
:104C4000DF93CF93CDB7DEB7CB54D0400FB6F894F7
:104C5000DEBF0FBECDBFFE01FE96608371838283EF
:104C60009383FE01EE5BFF4F518340831DAEFE0137
:104C7000FE96608171818281938120E030E040E086
:104C800050E00E942504882374F0FE01FE966081A6
:104C900071818281938120E030E046EC52E40E94F1
:104CA000C503181624F481E08DAF0C94F135FE0194
:104CB000EE5BFF4F80819181009711F40C94EF35EA
:104CC000FE01FE96608171818281938120E030E057
:104CD00040E251E40E941F02DC01CB01BC01CD0186
:104CE00020E030E040E251E40E941903DC01CB01F6
:104CF000BC01CD010E944900DC01CB018CAFFE015B
:104D0000FE96608171818281938120E030E040E2F3
:104D100051E40E941F02DC01CB01BC01CD010E94C5
:104D20004900DC01CB019AE0692F0E940041892FE4
:104D30008BAFFE01EE5BFF4F0190F081E02D808193
:104D4000882309F0A0C71AAE19AE8DC7FE01EE5B2D
:104D5000FF4F0190F081E02D818560E00E945E0AA6
:104D6000FE01EE5BFF4F0190F081E02D808561E058
:104D70000E945E0A8CAD282F30E02C963FAF2EAFFC
:104D80002C972C968EAD9FAD2C978430910509F40D
:104D90007CC12C962EAD3FAD2C972530310544F5C6
:104DA0002C968EAD9FAD2C978130910509F498C05B
:104DB0002C962EAD3FAD2C972230310544F42C9625
:104DC0008EAD9FAD2C97009709F443C007C32C9676
:104DD0002EAD3FAD2C972230310509F4C8C02C967A
:104DE0008EAD9FAD2C978330910509F407C1F6C2B3
:104DF0002C962EAD3FAD2C972730310509F41AC201
:104E00002C968EAD9FAD2C97883091058CF42C9606
:104E10002EAD3FAD2C972530310509F47DC12C9680
:104E20008EAD9FAD2C978630910509F4BCC1D6C2DA
:104E30002C962EAD3FAD2C972830310509F441C298
:104E40002C968EAD9FAD2C978930910509F480C2C8
:104E5000C5C2FE01EE5BFF4F0190F081E02D818124
:104E600061E00E945E0AFE01EE5BFF4F0190F0815F
:104E7000E02D828161E00E945E0AFE01EE5BFF4F41
:104E80000190F081E02D838161E00E945E0AFE01C5
:104E9000EE5BFF4F0190F081E02D848161E00E9484
:104EA0005E0AFE01EE5BFF4F0190F081E02D8581EF
:104EB00061E00E945E0AFE01EE5BFF4F0190F0810F
:104EC000E02D868161E00E945E0AFE01EE5BFF4FED
:104ED0000190F081E02D878160E00E945E0A7EC231
:104EE000FE01EE5BFF4F0190F081E02D818160E0DB
:104EF0000E945E0AFE01EE5BFF4F0190F081E02D03
:104F0000828161E00E945E0AFE01EE5BFF4F01902C
:104F1000F081E02D838161E00E945E0AFE01EE5B7C
:104F2000FF4F0190F081E02D848160E00E945E0AD5
:104F3000FE01EE5BFF4F0190F081E02D858160E086
:104F40000E945E0AFE01EE5BFF4F0190F081E02DB2
:104F5000868160E00E945E0AFE01EE5BFF4F0190D9
:104F6000F081E02D878160E00E945E0A37C2FE0179
:104F7000EE5BFF4F0190F081E02D818161E00E94A6
:104F80005E0AFE01EE5BFF4F0190F081E02D828111
:104F900061E00E945E0AFE01EE5BFF4F0190F0812E
:104FA000E02D838160E00E945E0AFE01EE5BFF4F10
:104FB0000190F081E02D848161E00E945E0AFE0193
:104FC000EE5BFF4F0190F081E02D858161E00E9452
:104FD0005E0AFE01EE5BFF4F0190F081E02D8681BD
:104FE00060E00E945E0AFE01EE5BFF4F0190F081DF
:104FF000E02D878161E00E945E0AF0C1FE01EE5B58
:10500000FF4F0190F081E02D818161E00E945E0AF6
:10501000FE01EE5BFF4F0190F081E02D828161E0A7
:105020000E945E0AFE01EE5BFF4F0190F081E02DD1
:10503000838161E00E945E0AFE01EE5BFF4F0190FA
:10504000F081E02D848161E00E945E0AFE01EE5B4A
:10505000FF4F0190F081E02D858160E00E945E0AA3
:10506000FE01EE5BFF4F0190F081E02D868160E054
:105070000E945E0AFE01EE5BFF4F0190F081E02D81
:10508000878161E00E945E0AA9C1FE01EE5BFF4FCD
:105090000190F081E02D818160E00E945E0AFE01B6
:1050A000EE5BFF4F0190F081E02D828161E00E9474
:1050B0005E0AFE01EE5BFF4F0190F081E02D8381DF
:1050C00061E00E945E0AFE01EE5BFF4F0190F081FD
:1050D000E02D848160E00E945E0AFE01EE5BFF4FDE
:1050E0000190F081E02D858160E00E945E0AFE0162
:1050F000EE5BFF4F0190F081E02D868161E00E9420
:105100005E0AFE01EE5BFF4F0190F081E02D87818A
:1051100061E00E945E0A62C1FE01EE5BFF4F0190FA
:10512000F081E02D818161E00E945E0AFE01EE5B6C
:10513000FF4F0190F081E02D828160E00E945E0AC5
:10514000FE01EE5BFF4F0190F081E02D838161E075
:105150000E945E0AFE01EE5BFF4F0190F081E02DA0
:10516000848161E00E945E0AFE01EE5BFF4F0190C8
:10517000F081E02D858160E00E945E0AFE01EE5B19
:10518000FF4F0190F081E02D868161E00E945E0A70
:10519000FE01EE5BFF4F0190F081E02D878161E021
:1051A0000E945E0A1BC1FE01EE5BFF4F0190F08181
:1051B000E02D818161E00E945E0AFE01EE5BFF4FFF
:1051C0000190F081E02D828160E00E945E0AFE0184
:1051D000EE5BFF4F0190F081E02D838161E00E9442
:1051E0005E0AFE01EE5BFF4F0190F081E02D8481AD
:1051F00061E00E945E0AFE01EE5BFF4F0190F081CC
:10520000E02D858161E00E945E0AFE01EE5BFF4FAA
:105210000190F081E02D868161E00E945E0AFE012E
:10522000EE5BFF4F0190F081E02D878161E00E94ED
:105230005E0AD4C0FE01EE5BFF4F0190F081E02DCD
:10524000818161E00E945E0AFE01EE5BFF4F0190EA
:10525000F081E02D828161E00E945E0AFE01EE5B3A
:10526000FF4F0190F081E02D838161E00E945E0A92
:10527000FE01EE5BFF4F0190F081E02D848160E044
:105280000E945E0AFE01EE5BFF4F0190F081E02D6F
:10529000858160E00E945E0AFE01EE5BFF4F019097
:1052A000F081E02D868160E00E945E0AFE01EE5BE7
:1052B000FF4F0190F081E02D878160E00E945E0A3F
:1052C0008DC0FE01EE5BFF4F0190F081E02D8181EA
:1052D00061E00E945E0AFE01EE5BFF4F0190F081EB
:1052E000E02D828161E00E945E0AFE01EE5BFF4FCD
:1052F0000190F081E02D838161E00E945E0AFE0151
:10530000EE5BFF4F0190F081E02D848161E00E940F
:105310005E0AFE01EE5BFF4F0190F081E02D85817A
:1053200061E00E945E0AFE01EE5BFF4F0190F0819A
:10533000E02D868161E00E945E0AFE01EE5BFF4F78
:105340000190F081E02D878161E00E945E0A46C0F5
:10535000FE01EE5BFF4F0190F081E02D818161E065
:105360000E945E0AFE01EE5BFF4F0190F081E02D8E
:10537000828161E00E945E0AFE01EE5BFF4F0190B8
:10538000F081E02D838161E00E945E0AFE01EE5B08
:10539000FF4F0190F081E02D848161E00E945E0A60
:1053A000FE01EE5BFF4F0190F081E02D858160E012
:1053B0000E945E0AFE01EE5BFF4F0190F081E02D3E
:1053C000868161E00E945E0AFE01EE5BFF4F019064
:1053D000F081E02D878161E00E945E0A80E090E02C
:1053E000A0E2B1E48DAB9EABAFABB8AF6DA97EA927
:1053F0008FA998AD20E030E04AE755E40E941F02F3
:10540000DC01CB0189AB9AABABABBCAB69A97AA988
:105410008BA99CA920E030E040E85FE30E942504CE
:1054200088232CF481E090E098AB8FA73FC069A956
:105430007AA98BA99CA920E03FEF4FE757E40E948F
:10544000C50318164CF56DA97EA98FA998AD20E06B
:1054500030E040E251E40E941F02DC01CB01BC01BC
:10546000CD010E944900DC01CB0198AB8FA70FC092
:1054700080E991E09EA78DA78DA59EA50197F1F7E4
:105480009EA78DA78FA598A9019798AB8FA78FA5E9
:1054900098A9009769F714C069A97AA98BA99CA952
:1054A0000E944900DC01CB0198AB8FA78FA598A97A
:1054B0009CA78BA78BA59CA50197F1F79CA78BA711
:1054C000FE01EE5BFF4F0190F081E02D818561E0F0
:1054D0000E945E0AFE01EE5BFF4F0190F081E02D1D
:1054E000808560E00E945E0AFE01EE5BFF4F019046
:1054F000F081E02D828560E00E945E0A8BAD282F4E
:1055000030E02A963FAF2EAF2A972A968EAD9FADF8
:105510002A978430910509F47CC12A962EAD3FADBF
:105520002A972530310544F52A968EAD9FAD2A97EE
:105530008130910509F498C02A962EAD3FAD2A9787
:105540002230310544F42A968EAD9FAD2A970097FC
:1055500009F443C007C32A962EAD3FAD2A972230E7
:10556000310509F4C8C02A968EAD9FAD2A978330C5
:10557000910509F407C1F6C22A962EAD3FAD2A97D0
:105580002730310509F41AC22A968EAD9FAD2A97AD
:10559000883091058CF42A962EAD3FAD2A972530A0
:1055A000310509F47DC12A968EAD9FAD2A978630CC
:1055B000910509F4BCC1D6C22A962EAD3FAD2A97FB
:1055C0002830310509F441C22A968EAD9FAD2A9745
:1055D0008930910509F480C2C5C2FE01EE5BFF4F20
:1055E0000190F081E02D818161E00E945E0AFE0160
:1055F000EE5BFF4F0190F081E02D828161E00E941F
:105600005E0AFE01EE5BFF4F0190F081E02D838189
:1056100061E00E945E0AFE01EE5BFF4F0190F081A7
:10562000E02D848161E00E945E0AFE01EE5BFF4F87
:105630000190F081E02D858161E00E945E0AFE010B
:10564000EE5BFF4F0190F081E02D868161E00E94CA
:105650005E0AFE01EE5BFF4F0190F081E02D878135
:1056600060E00E945E0A7EC2FE01EE5BFF4F019089
:10567000F081E02D818160E00E945E0AFE01EE5B18
:10568000FF4F0190F081E02D828161E00E945E0A6F
:10569000FE01EE5BFF4F0190F081E02D838161E020
:1056A0000E945E0AFE01EE5BFF4F0190F081E02D4B
:1056B000848160E00E945E0AFE01EE5BFF4F019074
:1056C000F081E02D858160E00E945E0AFE01EE5BC4
:1056D000FF4F0190F081E02D868160E00E945E0A1C
:1056E000FE01EE5BFF4F0190F081E02D878160E0CD
:1056F0000E945E0A37C2FE01EE5BFF4F0190F0810F
:10570000E02D818161E00E945E0AFE01EE5BFF4FA9
:105710000190F081E02D828161E00E945E0AFE012D
:10572000EE5BFF4F0190F081E02D838160E00E94ED
:105730005E0AFE01EE5BFF4F0190F081E02D848157
:1057400061E00E945E0AFE01EE5BFF4F0190F08176
:10575000E02D858161E00E945E0AFE01EE5BFF4F55
:105760000190F081E02D868160E00E945E0AFE01DA
:10577000EE5BFF4F0190F081E02D878161E00E9498
:105780005E0AF0C1FE01EE5BFF4F0190F081E02D5B
:10579000818161E00E945E0AFE01EE5BFF4F019095
:1057A000F081E02D828161E00E945E0AFE01EE5BE5
:1057B000FF4F0190F081E02D838161E00E945E0A3D
:1057C000FE01EE5BFF4F0190F081E02D848161E0EE
:1057D0000E945E0AFE01EE5BFF4F0190F081E02D1A
:1057E000858160E00E945E0AFE01EE5BFF4F019042
:1057F000F081E02D868160E00E945E0AFE01EE5B92
:10580000FF4F0190F081E02D878161E00E945E0AE8
:10581000A9C1FE01EE5BFF4F0190F081E02D818177
:1058200060E00E945E0AFE01EE5BFF4F0190F08196
:10583000E02D828161E00E945E0AFE01EE5BFF4F77
:105840000190F081E02D838161E00E945E0AFE01FB
:10585000EE5BFF4F0190F081E02D848160E00E94BB
:105860005E0AFE01EE5BFF4F0190F081E02D858125
:1058700060E00E945E0AFE01EE5BFF4F0190F08146
:10588000E02D868161E00E945E0AFE01EE5BFF4F23
:105890000190F081E02D878161E00E945E0A62C183
:1058A000FE01EE5BFF4F0190F081E02D818161E010
:1058B0000E945E0AFE01EE5BFF4F0190F081E02D39
:1058C000828160E00E945E0AFE01EE5BFF4F019064
:1058D000F081E02D838161E00E945E0AFE01EE5BB3
:1058E000FF4F0190F081E02D848161E00E945E0A0B
:1058F000FE01EE5BFF4F0190F081E02D858160E0BD
:105900000E945E0AFE01EE5BFF4F0190F081E02DE8
:10591000868161E00E945E0AFE01EE5BFF4F01900E
:10592000F081E02D878161E00E945E0A1BC1FE01CB
:10593000EE5BFF4F0190F081E02D818161E00E94DC
:105940005E0AFE01EE5BFF4F0190F081E02D828147
:1059500060E00E945E0AFE01EE5BFF4F0190F08165
:10596000E02D838161E00E945E0AFE01EE5BFF4F45
:105970000190F081E02D848161E00E945E0AFE01C9
:10598000EE5BFF4F0190F081E02D858161E00E9488
:105990005E0AFE01EE5BFF4F0190F081E02D8681F3
:1059A00061E00E945E0AFE01EE5BFF4F0190F08114
:1059B000E02D878161E00E945E0AD4C0FE01EE5BAB
:1059C000FF4F0190F081E02D818161E00E945E0A2D
:1059D000FE01EE5BFF4F0190F081E02D828161E0DE
:1059E0000E945E0AFE01EE5BFF4F0190F081E02D08
:1059F000838161E00E945E0AFE01EE5BFF4F019031
:105A0000F081E02D848160E00E945E0AFE01EE5B81
:105A1000FF4F0190F081E02D858160E00E945E0AD9
:105A2000FE01EE5BFF4F0190F081E02D868160E08A
:105A30000E945E0AFE01EE5BFF4F0190F081E02DB7
:105A4000878160E00E945E0A8DC0FE01EE5BFF4F21
:105A50000190F081E02D818161E00E945E0AFE01EB
:105A6000EE5BFF4F0190F081E02D828161E00E94AA
:105A70005E0AFE01EE5BFF4F0190F081E02D838115
:105A800061E00E945E0AFE01EE5BFF4F0190F08133
:105A9000E02D848161E00E945E0AFE01EE5BFF4F13
:105AA0000190F081E02D858161E00E945E0AFE0197
:105AB000EE5BFF4F0190F081E02D868161E00E9456
:105AC0005E0AFE01EE5BFF4F0190F081E02D8781C1
:105AD00061E00E945E0A46C0FE01EE5BFF4F01904E
